{
  "contractName": "Colour",
  "abi": [
    {
      "inputs": [],
      "stateMutability": "nonpayable",
      "type": "constructor"
    },
    {
      "anonymous": false,
      "inputs": [
        {
          "indexed": true,
          "internalType": "address",
          "name": "owner",
          "type": "address"
        },
        {
          "indexed": true,
          "internalType": "address",
          "name": "approved",
          "type": "address"
        },
        {
          "indexed": true,
          "internalType": "uint256",
          "name": "tokenId",
          "type": "uint256"
        }
      ],
      "name": "Approval",
      "type": "event"
    },
    {
      "anonymous": false,
      "inputs": [
        {
          "indexed": true,
          "internalType": "address",
          "name": "owner",
          "type": "address"
        },
        {
          "indexed": true,
          "internalType": "address",
          "name": "operator",
          "type": "address"
        },
        {
          "indexed": false,
          "internalType": "bool",
          "name": "approved",
          "type": "bool"
        }
      ],
      "name": "ApprovalForAll",
      "type": "event"
    },
    {
      "anonymous": false,
      "inputs": [
        {
          "indexed": true,
          "internalType": "address",
          "name": "previousOwner",
          "type": "address"
        },
        {
          "indexed": true,
          "internalType": "address",
          "name": "newOwner",
          "type": "address"
        }
      ],
      "name": "OwnershipTransferred",
      "type": "event"
    },
    {
      "anonymous": false,
      "inputs": [
        {
          "indexed": false,
          "internalType": "address",
          "name": "account",
          "type": "address"
        }
      ],
      "name": "Paused",
      "type": "event"
    },
    {
      "anonymous": false,
      "inputs": [
        {
          "indexed": true,
          "internalType": "address",
          "name": "from",
          "type": "address"
        },
        {
          "indexed": true,
          "internalType": "address",
          "name": "to",
          "type": "address"
        },
        {
          "indexed": true,
          "internalType": "uint256",
          "name": "tokenId",
          "type": "uint256"
        }
      ],
      "name": "Transfer",
      "type": "event"
    },
    {
      "anonymous": false,
      "inputs": [
        {
          "indexed": false,
          "internalType": "address",
          "name": "account",
          "type": "address"
        }
      ],
      "name": "Unpaused",
      "type": "event"
    },
    {
      "inputs": [
        {
          "internalType": "address",
          "name": "to",
          "type": "address"
        },
        {
          "internalType": "uint256",
          "name": "tokenId",
          "type": "uint256"
        }
      ],
      "name": "approve",
      "outputs": [],
      "stateMutability": "nonpayable",
      "type": "function"
    },
    {
      "inputs": [
        {
          "internalType": "address",
          "name": "owner",
          "type": "address"
        }
      ],
      "name": "balanceOf",
      "outputs": [
        {
          "internalType": "uint256",
          "name": "",
          "type": "uint256"
        }
      ],
      "stateMutability": "view",
      "type": "function",
      "constant": true
    },
    {
      "inputs": [
        {
          "internalType": "uint256",
          "name": "tokenId",
          "type": "uint256"
        }
      ],
      "name": "burn",
      "outputs": [],
      "stateMutability": "nonpayable",
      "type": "function"
    },
    {
      "inputs": [
        {
          "internalType": "uint256",
          "name": "",
          "type": "uint256"
        }
      ],
      "name": "colours",
      "outputs": [
        {
          "internalType": "string",
          "name": "",
          "type": "string"
        }
      ],
      "stateMutability": "view",
      "type": "function",
      "constant": true
    },
    {
      "inputs": [
        {
          "internalType": "uint256",
          "name": "tokenId",
          "type": "uint256"
        }
      ],
      "name": "getApproved",
      "outputs": [
        {
          "internalType": "address",
          "name": "",
          "type": "address"
        }
      ],
      "stateMutability": "view",
      "type": "function",
      "constant": true
    },
    {
      "inputs": [
        {
          "internalType": "address",
          "name": "owner",
          "type": "address"
        },
        {
          "internalType": "address",
          "name": "operator",
          "type": "address"
        }
      ],
      "name": "isApprovedForAll",
      "outputs": [
        {
          "internalType": "bool",
          "name": "",
          "type": "bool"
        }
      ],
      "stateMutability": "view",
      "type": "function",
      "constant": true
    },
    {
      "inputs": [],
      "name": "name",
      "outputs": [
        {
          "internalType": "string",
          "name": "",
          "type": "string"
        }
      ],
      "stateMutability": "view",
      "type": "function",
      "constant": true
    },
    {
      "inputs": [],
      "name": "owner",
      "outputs": [
        {
          "internalType": "address",
          "name": "",
          "type": "address"
        }
      ],
      "stateMutability": "view",
      "type": "function",
      "constant": true
    },
    {
      "inputs": [
        {
          "internalType": "uint256",
          "name": "tokenId",
          "type": "uint256"
        }
      ],
      "name": "ownerOf",
      "outputs": [
        {
          "internalType": "address",
          "name": "",
          "type": "address"
        }
      ],
      "stateMutability": "view",
      "type": "function",
      "constant": true
    },
    {
      "inputs": [],
      "name": "paused",
      "outputs": [
        {
          "internalType": "bool",
          "name": "",
          "type": "bool"
        }
      ],
      "stateMutability": "view",
      "type": "function",
      "constant": true
    },
    {
      "inputs": [],
      "name": "renounceOwnership",
      "outputs": [],
      "stateMutability": "nonpayable",
      "type": "function"
    },
    {
      "inputs": [
        {
          "internalType": "address",
          "name": "from",
          "type": "address"
        },
        {
          "internalType": "address",
          "name": "to",
          "type": "address"
        },
        {
          "internalType": "uint256",
          "name": "tokenId",
          "type": "uint256"
        }
      ],
      "name": "safeTransferFrom",
      "outputs": [],
      "stateMutability": "nonpayable",
      "type": "function"
    },
    {
      "inputs": [
        {
          "internalType": "address",
          "name": "from",
          "type": "address"
        },
        {
          "internalType": "address",
          "name": "to",
          "type": "address"
        },
        {
          "internalType": "uint256",
          "name": "tokenId",
          "type": "uint256"
        },
        {
          "internalType": "bytes",
          "name": "_data",
          "type": "bytes"
        }
      ],
      "name": "safeTransferFrom",
      "outputs": [],
      "stateMutability": "nonpayable",
      "type": "function"
    },
    {
      "inputs": [
        {
          "internalType": "address",
          "name": "operator",
          "type": "address"
        },
        {
          "internalType": "bool",
          "name": "approved",
          "type": "bool"
        }
      ],
      "name": "setApprovalForAll",
      "outputs": [],
      "stateMutability": "nonpayable",
      "type": "function"
    },
    {
      "inputs": [],
      "name": "symbol",
      "outputs": [
        {
          "internalType": "string",
          "name": "",
          "type": "string"
        }
      ],
      "stateMutability": "view",
      "type": "function",
      "constant": true
    },
    {
      "inputs": [
        {
          "internalType": "uint256",
          "name": "index",
          "type": "uint256"
        }
      ],
      "name": "tokenByIndex",
      "outputs": [
        {
          "internalType": "uint256",
          "name": "",
          "type": "uint256"
        }
      ],
      "stateMutability": "view",
      "type": "function",
      "constant": true
    },
    {
      "inputs": [
        {
          "internalType": "address",
          "name": "owner",
          "type": "address"
        },
        {
          "internalType": "uint256",
          "name": "index",
          "type": "uint256"
        }
      ],
      "name": "tokenOfOwnerByIndex",
      "outputs": [
        {
          "internalType": "uint256",
          "name": "",
          "type": "uint256"
        }
      ],
      "stateMutability": "view",
      "type": "function",
      "constant": true
    },
    {
      "inputs": [
        {
          "internalType": "uint256",
          "name": "tokenId",
          "type": "uint256"
        }
      ],
      "name": "tokenURI",
      "outputs": [
        {
          "internalType": "string",
          "name": "",
          "type": "string"
        }
      ],
      "stateMutability": "view",
      "type": "function",
      "constant": true
    },
    {
      "inputs": [],
      "name": "totalSupply",
      "outputs": [
        {
          "internalType": "uint256",
          "name": "",
          "type": "uint256"
        }
      ],
      "stateMutability": "view",
      "type": "function",
      "constant": true
    },
    {
      "inputs": [
        {
          "internalType": "address",
          "name": "from",
          "type": "address"
        },
        {
          "internalType": "address",
          "name": "to",
          "type": "address"
        },
        {
          "internalType": "uint256",
          "name": "tokenId",
          "type": "uint256"
        }
      ],
      "name": "transferFrom",
      "outputs": [],
      "stateMutability": "nonpayable",
      "type": "function"
    },
    {
      "inputs": [
        {
          "internalType": "address",
          "name": "newOwner",
          "type": "address"
        }
      ],
      "name": "transferOwnership",
      "outputs": [],
      "stateMutability": "nonpayable",
      "type": "function"
    },
    {
      "inputs": [
        {
          "internalType": "address",
          "name": "to",
          "type": "address"
        }
      ],
      "name": "safeMint",
      "outputs": [],
      "stateMutability": "nonpayable",
      "type": "function"
    },
    {
      "inputs": [
        {
          "internalType": "string",
          "name": "_colour",
          "type": "string"
        }
      ],
      "name": "mint",
      "outputs": [],
      "stateMutability": "nonpayable",
      "type": "function"
    },
    {
      "inputs": [
        {
          "internalType": "uint256",
          "name": "index",
          "type": "uint256"
        }
      ],
      "name": "getColour",
      "outputs": [
        {
          "internalType": "string",
          "name": "",
          "type": "string"
        }
      ],
      "stateMutability": "view",
      "type": "function",
      "constant": true
    },
    {
      "inputs": [],
      "name": "pause",
      "outputs": [],
      "stateMutability": "nonpayable",
      "type": "function"
    },
    {
      "inputs": [],
      "name": "unpause",
      "outputs": [],
      "stateMutability": "nonpayable",
      "type": "function"
    },
    {
      "inputs": [
        {
          "internalType": "bytes4",
          "name": "interfaceId",
          "type": "bytes4"
        }
      ],
      "name": "supportsInterface",
      "outputs": [
        {
          "internalType": "bool",
          "name": "",
          "type": "bool"
        }
      ],
      "stateMutability": "view",
      "type": "function",
      "constant": true
    }
  ],
  "bytecode": "0x60806040523480156200001157600080fd5b506040518060400160405280600681526020017f436f6c6f757200000000000000000000000000000000000000000000000000008152506040518060400160405280600481526020017f434f4c5200000000000000000000000000000000000000000000000000000000815250816000908051906020019062000096929190620001c1565b508060019080519060200190620000af929190620001c1565b5050506000600a60006101000a81548160ff021916908315150217905550620000ed620000e1620000f360201b60201c565b620000fb60201b60201c565b620002d6565b600033905090565b6000600a60019054906101000a900473ffffffffffffffffffffffffffffffffffffffff16905081600a60016101000a81548173ffffffffffffffffffffffffffffffffffffffff021916908373ffffffffffffffffffffffffffffffffffffffff1602179055508173ffffffffffffffffffffffffffffffffffffffff168173ffffffffffffffffffffffffffffffffffffffff167f8be0079c531659141344cd1fd0a4f28419497f9722a3daafe3b4186f6b6457e060405160405180910390a35050565b828054620001cf9062000271565b90600052602060002090601f016020900481019282620001f357600085556200023f565b82601f106200020e57805160ff19168380011785556200023f565b828001600101855582156200023f579182015b828111156200023e57825182559160200191906001019062000221565b5b5090506200024e919062000252565b5090565b5b808211156200026d57600081600090555060010162000253565b5090565b600060028204905060018216806200028a57607f821691505b60208210811415620002a157620002a0620002a7565b5b50919050565b7f4e487b7100000000000000000000000000000000000000000000000000000000600052602260045260246000fd5b613d4480620002e66000396000f3fe608060405234801561001057600080fd5b50600436106101a95760003560e01c80635c975abb116100f9578063a22cb46511610097578063c87b56dd11610071578063c87b56dd146104a6578063d85d3d27146104d6578063e985e9c5146104f2578063f2fde38b14610522576101a9565b8063a22cb4651461043e578063b88d4fde1461045a578063c76ab94014610476576101a9565b8063715018a6116100d3578063715018a6146103ee5780638456cb59146103f85780638da5cb5b1461040257806395d89b4114610420576101a9565b80635c975abb146103705780636352211e1461038e57806370a08231146103be576101a9565b80632f745c591161016657806340d097c31161014057806340d097c3146102ec57806342842e0e1461030857806342966c68146103245780634f6ccce714610340576101a9565b80632f745c591461028257806334aedda9146102b25780633f4ba83a146102e2576101a9565b806301ffc9a7146101ae57806306fdde03146101de578063081812fc146101fc578063095ea7b31461022c57806318160ddd1461024857806323b872dd14610266575b600080fd5b6101c860048036038101906101c39190612c54565b61053e565b6040516101d591906135fc565b60405180910390f35b6101e6610550565b6040516101f39190613617565b60405180910390f35b61021660048036038101906102119190612ce7565b6105e2565b6040516102239190613595565b60405180910390f35b61024660048036038101906102419190612c18565b610667565b005b61025061077f565b60405161025d91906138d9565b60405180910390f35b610280600480360381019061027b9190612b12565b61078c565b005b61029c60048036038101906102979190612c18565b6107ec565b6040516102a991906138d9565b60405180910390f35b6102cc60048036038101906102c79190612ce7565b610891565b6040516102d99190613617565b60405180910390f35b6102ea610967565b005b61030660048036038101906103019190612aad565b6109ed565b005b610322600480360381019061031d9190612b12565b610a89565b005b61033e60048036038101906103399190612ce7565b610aa9565b005b61035a60048036038101906103559190612ce7565b610b05565b60405161036791906138d9565b60405180910390f35b610378610b9c565b60405161038591906135fc565b60405180910390f35b6103a860048036038101906103a39190612ce7565b610bb3565b6040516103b59190613595565b60405180910390f35b6103d860048036038101906103d39190612aad565b610c65565b6040516103e591906138d9565b60405180910390f35b6103f6610d1d565b005b610400610da5565b005b61040a610e2b565b6040516104179190613595565b60405180910390f35b610428610e55565b6040516104359190613617565b60405180910390f35b61045860048036038101906104539190612bdc565b610ee7565b005b610474600480360381019061046f9190612b61565b611068565b005b610490600480360381019061048b9190612ce7565b6110ca565b60405161049d9190613617565b60405180910390f35b6104c060048036038101906104bb9190612ce7565b611176565b6040516104cd9190613617565b60405180910390f35b6104f060048036038101906104eb9190612ca6565b61121d565b005b61050c60048036038101906105079190612ad6565b6112de565b60405161051991906135fc565b60405180910390f35b61053c60048036038101906105379190612aad565b611372565b005b60006105498261146a565b9050919050565b60606000805461055f90613b39565b80601f016020809104026020016040519081016040528092919081815260200182805461058b90613b39565b80156105d85780601f106105ad576101008083540402835291602001916105d8565b820191906000526020600020905b8154815290600101906020018083116105bb57829003601f168201915b5050505050905090565b60006105ed826114e4565b61062c576040517f08c379a0000000000000000000000000000000000000000000000000000000008152600401610623906137d9565b60405180910390fd5b6004600083815260200190815260200160002060009054906101000a900473ffffffffffffffffffffffffffffffffffffffff169050919050565b600061067282610bb3565b90508073ffffffffffffffffffffffffffffffffffffffff168373ffffffffffffffffffffffffffffffffffffffff1614156106e3576040517f08c379a00000000000000000000000000000000000000000000000000000000081526004016106da90613859565b60405180910390fd5b8073ffffffffffffffffffffffffffffffffffffffff16610702611550565b73ffffffffffffffffffffffffffffffffffffffff16148061073157506107308161072b611550565b6112de565b5b610770576040517f08c379a000000000000000000000000000000000000000000000000000000000815260040161076790613759565b60405180910390fd5b61077a8383611558565b505050565b6000600880549050905090565b61079d610797611550565b82611611565b6107dc576040517f08c379a00000000000000000000000000000000000000000000000000000000081526004016107d390613879565b60405180910390fd5b6107e78383836116ef565b505050565b60006107f783610c65565b8210610838576040517f08c379a000000000000000000000000000000000000000000000000000000000815260040161082f90613659565b60405180910390fd5b600660008473ffffffffffffffffffffffffffffffffffffffff1673ffffffffffffffffffffffffffffffffffffffff168152602001908152602001600020600083815260200190815260200160002054905092915050565b6060600b82815481106108cd577f4e487b7100000000000000000000000000000000000000000000000000000000600052603260045260246000fd5b9060005260206000200180546108e290613b39565b80601f016020809104026020016040519081016040528092919081815260200182805461090e90613b39565b801561095b5780601f106109305761010080835404028352916020019161095b565b820191906000526020600020905b81548152906001019060200180831161093e57829003601f168201915b50505050509050919050565b61096f611550565b73ffffffffffffffffffffffffffffffffffffffff1661098d610e2b565b73ffffffffffffffffffffffffffffffffffffffff16146109e3576040517f08c379a00000000000000000000000000000000000000000000000000000000081526004016109da906137f9565b60405180910390fd5b6109eb61194b565b565b6109f5611550565b73ffffffffffffffffffffffffffffffffffffffff16610a13610e2b565b73ffffffffffffffffffffffffffffffffffffffff1614610a69576040517f08c379a0000000000000000000000000000000000000000000000000000000008152600401610a60906137f9565b60405180910390fd5b610a7c81610a77600d6119ed565b6119fb565b610a86600d611a19565b50565b610aa483838360405180602001604052806000815250611068565b505050565b610aba610ab4611550565b82611611565b610af9576040517f08c379a0000000000000000000000000000000000000000000000000000000008152600401610af0906138b9565b60405180910390fd5b610b0281611a2f565b50565b6000610b0f61077f565b8210610b50576040517f08c379a0000000000000000000000000000000000000000000000000000000008152600401610b4790613899565b60405180910390fd5b60088281548110610b8a577f4e487b7100000000000000000000000000000000000000000000000000000000600052603260045260246000fd5b90600052602060002001549050919050565b6000600a60009054906101000a900460ff16905090565b6000806002600084815260200190815260200160002060009054906101000a900473ffffffffffffffffffffffffffffffffffffffff169050600073ffffffffffffffffffffffffffffffffffffffff168173ffffffffffffffffffffffffffffffffffffffff161415610c5c576040517f08c379a0000000000000000000000000000000000000000000000000000000008152600401610c5390613799565b60405180910390fd5b80915050919050565b60008073ffffffffffffffffffffffffffffffffffffffff168273ffffffffffffffffffffffffffffffffffffffff161415610cd6576040517f08c379a0000000000000000000000000000000000000000000000000000000008152600401610ccd90613779565b60405180910390fd5b600360008373ffffffffffffffffffffffffffffffffffffffff1673ffffffffffffffffffffffffffffffffffffffff168152602001908152602001600020549050919050565b610d25611550565b73ffffffffffffffffffffffffffffffffffffffff16610d43610e2b565b73ffffffffffffffffffffffffffffffffffffffff1614610d99576040517f08c379a0000000000000000000000000000000000000000000000000000000008152600401610d90906137f9565b60405180910390fd5b610da36000611b40565b565b610dad611550565b73ffffffffffffffffffffffffffffffffffffffff16610dcb610e2b565b73ffffffffffffffffffffffffffffffffffffffff1614610e21576040517f08c379a0000000000000000000000000000000000000000000000000000000008152600401610e18906137f9565b60405180910390fd5b610e29611c06565b565b6000600a60019054906101000a900473ffffffffffffffffffffffffffffffffffffffff16905090565b606060018054610e6490613b39565b80601f0160208091040260200160405190810160405280929190818152602001828054610e9090613b39565b8015610edd5780601f10610eb257610100808354040283529160200191610edd565b820191906000526020600020905b815481529060010190602001808311610ec057829003601f168201915b5050505050905090565b610eef611550565b73ffffffffffffffffffffffffffffffffffffffff168273ffffffffffffffffffffffffffffffffffffffff161415610f5d576040517f08c379a0000000000000000000000000000000000000000000000000000000008152600401610f54906136f9565b60405180910390fd5b8060056000610f6a611550565b73ffffffffffffffffffffffffffffffffffffffff1673ffffffffffffffffffffffffffffffffffffffff16815260200190815260200160002060008473ffffffffffffffffffffffffffffffffffffffff1673ffffffffffffffffffffffffffffffffffffffff16815260200190815260200160002060006101000a81548160ff0219169083151502179055508173ffffffffffffffffffffffffffffffffffffffff16611017611550565b73ffffffffffffffffffffffffffffffffffffffff167f17307eab39ab6107e8899845ad3d59bd9653f200f220920489ca2b5937696c318360405161105c91906135fc565b60405180910390a35050565b611079611073611550565b83611611565b6110b8576040517f08c379a00000000000000000000000000000000000000000000000000000000081526004016110af90613879565b60405180910390fd5b6110c484848484611ca9565b50505050565b600b81815481106110da57600080fd5b9060005260206000200160009150905080546110f590613b39565b80601f016020809104026020016040519081016040528092919081815260200182805461112190613b39565b801561116e5780601f106111435761010080835404028352916020019161116e565b820191906000526020600020905b81548152906001019060200180831161115157829003601f168201915b505050505081565b6060611181826114e4565b6111c0576040517f08c379a00000000000000000000000000000000000000000000000000000000081526004016111b790613839565b60405180910390fd5b60006111ca611d05565b905060008151116111ea5760405180602001604052806000815250611215565b806111f484611d1c565b604051602001611205929190613571565b6040516020818303038152906040525b915050919050565b600c8160405161122d919061355a565b908152602001604051809103902060009054906101000a900460ff161561125357600080fd5b600b8190806001815401808255809150506001900390600052602060002001600090919091909150908051906020019061128e9291906128d1565b506000600b8054905090506112a33382611ec9565b6001600c836040516112b5919061355a565b908152602001604051809103902060006101000a81548160ff0219169083151502179055505050565b6000600560008473ffffffffffffffffffffffffffffffffffffffff1673ffffffffffffffffffffffffffffffffffffffff16815260200190815260200160002060008373ffffffffffffffffffffffffffffffffffffffff1673ffffffffffffffffffffffffffffffffffffffff16815260200190815260200160002060009054906101000a900460ff16905092915050565b61137a611550565b73ffffffffffffffffffffffffffffffffffffffff16611398610e2b565b73ffffffffffffffffffffffffffffffffffffffff16146113ee576040517f08c379a00000000000000000000000000000000000000000000000000000000081526004016113e5906137f9565b60405180910390fd5b600073ffffffffffffffffffffffffffffffffffffffff168173ffffffffffffffffffffffffffffffffffffffff16141561145e576040517f08c379a000000000000000000000000000000000000000000000000000000000815260040161145590613699565b60405180910390fd5b61146781611b40565b50565b60007f780e9d63000000000000000000000000000000000000000000000000000000007bffffffffffffffffffffffffffffffffffffffffffffffffffffffff1916827bffffffffffffffffffffffffffffffffffffffffffffffffffffffff191614806114dd57506114dc82612097565b5b9050919050565b60008073ffffffffffffffffffffffffffffffffffffffff166002600084815260200190815260200160002060009054906101000a900473ffffffffffffffffffffffffffffffffffffffff1673ffffffffffffffffffffffffffffffffffffffff1614159050919050565b600033905090565b816004600083815260200190815260200160002060006101000a81548173ffffffffffffffffffffffffffffffffffffffff021916908373ffffffffffffffffffffffffffffffffffffffff160217905550808273ffffffffffffffffffffffffffffffffffffffff166115cb83610bb3565b73ffffffffffffffffffffffffffffffffffffffff167f8c5be1e5ebec7d5bd14f71427d1e84f3dd0314c0f7b2291e5b200ac8c7c3b92560405160405180910390a45050565b600061161c826114e4565b61165b576040517f08c379a000000000000000000000000000000000000000000000000000000000815260040161165290613719565b60405180910390fd5b600061166683610bb3565b90508073ffffffffffffffffffffffffffffffffffffffff168473ffffffffffffffffffffffffffffffffffffffff1614806116d557508373ffffffffffffffffffffffffffffffffffffffff166116bd846105e2565b73ffffffffffffffffffffffffffffffffffffffff16145b806116e657506116e581856112de565b5b91505092915050565b8273ffffffffffffffffffffffffffffffffffffffff1661170f82610bb3565b73ffffffffffffffffffffffffffffffffffffffff1614611765576040517f08c379a000000000000000000000000000000000000000000000000000000000815260040161175c90613819565b60405180910390fd5b600073ffffffffffffffffffffffffffffffffffffffff168273ffffffffffffffffffffffffffffffffffffffff1614156117d5576040517f08c379a00000000000000000000000000000000000000000000000000000000081526004016117cc906136d9565b60405180910390fd5b6117e0838383612179565b6117eb600082611558565b6001600360008573ffffffffffffffffffffffffffffffffffffffff1673ffffffffffffffffffffffffffffffffffffffff168152602001908152602001600020600082825461183b9190613a4f565b925050819055506001600360008473ffffffffffffffffffffffffffffffffffffffff1673ffffffffffffffffffffffffffffffffffffffff168152602001908152602001600020600082825461189291906139c8565b92505081905550816002600083815260200190815260200160002060006101000a81548173ffffffffffffffffffffffffffffffffffffffff021916908373ffffffffffffffffffffffffffffffffffffffff160217905550808273ffffffffffffffffffffffffffffffffffffffff168473ffffffffffffffffffffffffffffffffffffffff167fddf252ad1be2c89b69c2b068fc378daa952ba7f163c4a11628f55a4df523b3ef60405160405180910390a4505050565b611953610b9c565b611992576040517f08c379a000000000000000000000000000000000000000000000000000000000815260040161198990613639565b60405180910390fd5b6000600a60006101000a81548160ff0219169083151502179055507f5db9ee0a495bf2e6ff9c91a7834c1ba4fdd244a5e8aa4e537bd38aeae4b073aa6119d6611550565b6040516119e39190613595565b60405180910390a1565b600081600001549050919050565b611a158282604051806020016040528060008152506121d1565b5050565b6001816000016000828254019250508190555050565b6000611a3a82610bb3565b9050611a4881600084612179565b611a53600083611558565b6001600360008373ffffffffffffffffffffffffffffffffffffffff1673ffffffffffffffffffffffffffffffffffffffff1681526020019081526020016000206000828254611aa39190613a4f565b925050819055506002600083815260200190815260200160002060006101000a81549073ffffffffffffffffffffffffffffffffffffffff021916905581600073ffffffffffffffffffffffffffffffffffffffff168273ffffffffffffffffffffffffffffffffffffffff167fddf252ad1be2c89b69c2b068fc378daa952ba7f163c4a11628f55a4df523b3ef60405160405180910390a45050565b6000600a60019054906101000a900473ffffffffffffffffffffffffffffffffffffffff16905081600a60016101000a81548173ffffffffffffffffffffffffffffffffffffffff021916908373ffffffffffffffffffffffffffffffffffffffff1602179055508173ffffffffffffffffffffffffffffffffffffffff168173ffffffffffffffffffffffffffffffffffffffff167f8be0079c531659141344cd1fd0a4f28419497f9722a3daafe3b4186f6b6457e060405160405180910390a35050565b611c0e610b9c565b15611c4e576040517f08c379a0000000000000000000000000000000000000000000000000000000008152600401611c4590613739565b60405180910390fd5b6001600a60006101000a81548160ff0219169083151502179055507f62e78cea01bee320cd4e420270b5ea74000d11b0c9f74754ebdbfc544b05a258611c92611550565b604051611c9f9190613595565b60405180910390a1565b611cb48484846116ef565b611cc08484848461222c565b611cff576040517f08c379a0000000000000000000000000000000000000000000000000000000008152600401611cf690613679565b60405180910390fd5b50505050565b606060405180602001604052806000815250905090565b60606000821415611d64576040518060400160405280600181526020017f30000000000000000000000000000000000000000000000000000000000000008152509050611ec4565b600082905060005b60008214611d96578080611d7f90613b6b565b915050600a82611d8f9190613a1e565b9150611d6c565b60008167ffffffffffffffff811115611dd8577f4e487b7100000000000000000000000000000000000000000000000000000000600052604160045260246000fd5b6040519080825280601f01601f191660200182016040528015611e0a5781602001600182028036833780820191505090505b5090505b60008514611ebd57600182611e239190613a4f565b9150600a85611e329190613bb4565b6030611e3e91906139c8565b60f81b818381518110611e7a577f4e487b7100000000000000000000000000000000000000000000000000000000600052603260045260246000fd5b60200101907effffffffffffffffffffffffffffffffffffffffffffffffffffffffffffff1916908160001a905350600a85611eb69190613a1e565b9450611e0e565b8093505050505b919050565b600073ffffffffffffffffffffffffffffffffffffffff168273ffffffffffffffffffffffffffffffffffffffff161415611f39576040517f08c379a0000000000000000000000000000000000000000000000000000000008152600401611f30906137b9565b60405180910390fd5b611f42816114e4565b15611f82576040517f08c379a0000000000000000000000000000000000000000000000000000000008152600401611f79906136b9565b60405180910390fd5b611f8e60008383612179565b6001600360008473ffffffffffffffffffffffffffffffffffffffff1673ffffffffffffffffffffffffffffffffffffffff1681526020019081526020016000206000828254611fde91906139c8565b92505081905550816002600083815260200190815260200160002060006101000a81548173ffffffffffffffffffffffffffffffffffffffff021916908373ffffffffffffffffffffffffffffffffffffffff160217905550808273ffffffffffffffffffffffffffffffffffffffff16600073ffffffffffffffffffffffffffffffffffffffff167fddf252ad1be2c89b69c2b068fc378daa952ba7f163c4a11628f55a4df523b3ef60405160405180910390a45050565b60007f80ac58cd000000000000000000000000000000000000000000000000000000007bffffffffffffffffffffffffffffffffffffffffffffffffffffffff1916827bffffffffffffffffffffffffffffffffffffffffffffffffffffffff1916148061216257507f5b5e139f000000000000000000000000000000000000000000000000000000007bffffffffffffffffffffffffffffffffffffffffffffffffffffffff1916827bffffffffffffffffffffffffffffffffffffffffffffffffffffffff1916145b806121725750612171826123c3565b5b9050919050565b612181610b9c565b156121c1576040517f08c379a00000000000000000000000000000000000000000000000000000000081526004016121b890613739565b60405180910390fd5b6121cc83838361242d565b505050565b6121db8383611ec9565b6121e8600084848461222c565b612227576040517f08c379a000000000000000000000000000000000000000000000000000000000815260040161221e90613679565b60405180910390fd5b505050565b600061224d8473ffffffffffffffffffffffffffffffffffffffff16612541565b156123b6578373ffffffffffffffffffffffffffffffffffffffff1663150b7a02612276611550565b8786866040518563ffffffff1660e01b815260040161229894939291906135b0565b602060405180830381600087803b1580156122b257600080fd5b505af19250505080156122e357506040513d601f19601f820116820180604052508101906122e09190612c7d565b60015b612366573d8060008114612313576040519150601f19603f3d011682016040523d82523d6000602084013e612318565b606091505b5060008151141561235e576040517f08c379a000000000000000000000000000000000000000000000000000000000815260040161235590613679565b60405180910390fd5b805181602001fd5b63150b7a0260e01b7bffffffffffffffffffffffffffffffffffffffffffffffffffffffff1916817bffffffffffffffffffffffffffffffffffffffffffffffffffffffff1916149150506123bb565b600190505b949350505050565b60007f01ffc9a7000000000000000000000000000000000000000000000000000000007bffffffffffffffffffffffffffffffffffffffffffffffffffffffff1916827bffffffffffffffffffffffffffffffffffffffffffffffffffffffff1916149050919050565b612438838383612554565b600073ffffffffffffffffffffffffffffffffffffffff168373ffffffffffffffffffffffffffffffffffffffff16141561247b5761247681612559565b6124ba565b8173ffffffffffffffffffffffffffffffffffffffff168373ffffffffffffffffffffffffffffffffffffffff16146124b9576124b883826125a2565b5b5b600073ffffffffffffffffffffffffffffffffffffffff168273ffffffffffffffffffffffffffffffffffffffff1614156124fd576124f88161270f565b61253c565b8273ffffffffffffffffffffffffffffffffffffffff168273ffffffffffffffffffffffffffffffffffffffff161461253b5761253a8282612852565b5b5b505050565b600080823b905060008111915050919050565b505050565b6008805490506009600083815260200190815260200160002081905550600881908060018154018082558091505060019003906000526020600020016000909190919091505550565b600060016125af84610c65565b6125b99190613a4f565b905060006007600084815260200190815260200160002054905081811461269e576000600660008673ffffffffffffffffffffffffffffffffffffffff1673ffffffffffffffffffffffffffffffffffffffff168152602001908152602001600020600084815260200190815260200160002054905080600660008773ffffffffffffffffffffffffffffffffffffffff1673ffffffffffffffffffffffffffffffffffffffff168152602001908152602001600020600084815260200190815260200160002081905550816007600083815260200190815260200160002081905550505b6007600084815260200190815260200160002060009055600660008573ffffffffffffffffffffffffffffffffffffffff1673ffffffffffffffffffffffffffffffffffffffff16815260200190815260200160002060008381526020019081526020016000206000905550505050565b600060016008805490506127239190613a4f565b9050600060096000848152602001908152602001600020549050600060088381548110612779577f4e487b7100000000000000000000000000000000000000000000000000000000600052603260045260246000fd5b9060005260206000200154905080600883815481106127c1577f4e487b7100000000000000000000000000000000000000000000000000000000600052603260045260246000fd5b906000526020600020018190555081600960008381526020019081526020016000208190555060096000858152602001908152602001600020600090556008805480612836577f4e487b7100000000000000000000000000000000000000000000000000000000600052603160045260246000fd5b6001900381819060005260206000200160009055905550505050565b600061285d83610c65565b905081600660008573ffffffffffffffffffffffffffffffffffffffff1673ffffffffffffffffffffffffffffffffffffffff168152602001908152602001600020600083815260200190815260200160002081905550806007600084815260200190815260200160002081905550505050565b8280546128dd90613b39565b90600052602060002090601f0160209004810192826128ff5760008555612946565b82601f1061291857805160ff1916838001178555612946565b82800160010185558215612946579182015b8281111561294557825182559160200191906001019061292a565b5b5090506129539190612957565b5090565b5b80821115612970576000816000905550600101612958565b5090565b600061298761298284613925565b6138f4565b90508281526020810184848401111561299f57600080fd5b6129aa848285613af7565b509392505050565b60006129c56129c084613955565b6138f4565b9050828152602081018484840111156129dd57600080fd5b6129e8848285613af7565b509392505050565b6000813590506129ff81613cb2565b92915050565b600081359050612a1481613cc9565b92915050565b600081359050612a2981613ce0565b92915050565b600081519050612a3e81613ce0565b92915050565b600082601f830112612a5557600080fd5b8135612a65848260208601612974565b91505092915050565b600082601f830112612a7f57600080fd5b8135612a8f8482602086016129b2565b91505092915050565b600081359050612aa781613cf7565b92915050565b600060208284031215612abf57600080fd5b6000612acd848285016129f0565b91505092915050565b60008060408385031215612ae957600080fd5b6000612af7858286016129f0565b9250506020612b08858286016129f0565b9150509250929050565b600080600060608486031215612b2757600080fd5b6000612b35868287016129f0565b9350506020612b46868287016129f0565b9250506040612b5786828701612a98565b9150509250925092565b60008060008060808587031215612b7757600080fd5b6000612b85878288016129f0565b9450506020612b96878288016129f0565b9350506040612ba787828801612a98565b925050606085013567ffffffffffffffff811115612bc457600080fd5b612bd087828801612a44565b91505092959194509250565b60008060408385031215612bef57600080fd5b6000612bfd858286016129f0565b9250506020612c0e85828601612a05565b9150509250929050565b60008060408385031215612c2b57600080fd5b6000612c39858286016129f0565b9250506020612c4a85828601612a98565b9150509250929050565b600060208284031215612c6657600080fd5b6000612c7484828501612a1a565b91505092915050565b600060208284031215612c8f57600080fd5b6000612c9d84828501612a2f565b91505092915050565b600060208284031215612cb857600080fd5b600082013567ffffffffffffffff811115612cd257600080fd5b612cde84828501612a6e565b91505092915050565b600060208284031215612cf957600080fd5b6000612d0784828501612a98565b91505092915050565b612d1981613a83565b82525050565b612d2881613a95565b82525050565b6000612d3982613985565b612d43818561399b565b9350612d53818560208601613b06565b612d5c81613ca1565b840191505092915050565b6000612d7282613990565b612d7c81856139ac565b9350612d8c818560208601613b06565b612d9581613ca1565b840191505092915050565b6000612dab82613990565b612db581856139bd565b9350612dc5818560208601613b06565b80840191505092915050565b6000612dde6014836139ac565b91507f5061757361626c653a206e6f74207061757365640000000000000000000000006000830152602082019050919050565b6000612e1e602b836139ac565b91507f455243373231456e756d657261626c653a206f776e657220696e646578206f7560008301527f74206f6620626f756e64730000000000000000000000000000000000000000006020830152604082019050919050565b6000612e846032836139ac565b91507f4552433732313a207472616e7366657220746f206e6f6e20455243373231526560008301527f63656976657220696d706c656d656e74657200000000000000000000000000006020830152604082019050919050565b6000612eea6026836139ac565b91507f4f776e61626c653a206e6577206f776e657220697320746865207a65726f206160008301527f64647265737300000000000000000000000000000000000000000000000000006020830152604082019050919050565b6000612f50601c836139ac565b91507f4552433732313a20746f6b656e20616c7265616479206d696e746564000000006000830152602082019050919050565b6000612f906024836139ac565b91507f4552433732313a207472616e7366657220746f20746865207a65726f2061646460008301527f72657373000000000000000000000000000000000000000000000000000000006020830152604082019050919050565b6000612ff66019836139ac565b91507f4552433732313a20617070726f766520746f2063616c6c6572000000000000006000830152602082019050919050565b6000613036602c836139ac565b91507f4552433732313a206f70657261746f7220717565727920666f72206e6f6e657860008301527f697374656e7420746f6b656e00000000000000000000000000000000000000006020830152604082019050919050565b600061309c6010836139ac565b91507f5061757361626c653a20706175736564000000000000000000000000000000006000830152602082019050919050565b60006130dc6038836139ac565b91507f4552433732313a20617070726f76652063616c6c6572206973206e6f74206f7760008301527f6e6572206e6f7220617070726f76656420666f7220616c6c00000000000000006020830152604082019050919050565b6000613142602a836139ac565b91507f4552433732313a2062616c616e636520717565727920666f7220746865207a6560008301527f726f2061646472657373000000000000000000000000000000000000000000006020830152604082019050919050565b60006131a86029836139ac565b91507f4552433732313a206f776e657220717565727920666f72206e6f6e657869737460008301527f656e7420746f6b656e00000000000000000000000000000000000000000000006020830152604082019050919050565b600061320e6020836139ac565b91507f4552433732313a206d696e7420746f20746865207a65726f20616464726573736000830152602082019050919050565b600061324e602c836139ac565b91507f4552433732313a20617070726f76656420717565727920666f72206e6f6e657860008301527f697374656e7420746f6b656e00000000000000000000000000000000000000006020830152604082019050919050565b60006132b46020836139ac565b91507f4f776e61626c653a2063616c6c6572206973206e6f7420746865206f776e65726000830152602082019050919050565b60006132f46029836139ac565b91507f4552433732313a207472616e73666572206f6620746f6b656e2074686174206960008301527f73206e6f74206f776e00000000000000000000000000000000000000000000006020830152604082019050919050565b600061335a602f836139ac565b91507f4552433732314d657461646174613a2055524920717565727920666f72206e6f60008301527f6e6578697374656e7420746f6b656e00000000000000000000000000000000006020830152604082019050919050565b60006133c06021836139ac565b91507f4552433732313a20617070726f76616c20746f2063757272656e74206f776e6560008301527f72000000000000000000000000000000000000000000000000000000000000006020830152604082019050919050565b60006134266031836139ac565b91507f4552433732313a207472616e736665722063616c6c6572206973206e6f74206f60008301527f776e6572206e6f7220617070726f7665640000000000000000000000000000006020830152604082019050919050565b600061348c602c836139ac565b91507f455243373231456e756d657261626c653a20676c6f62616c20696e646578206f60008301527f7574206f6620626f756e647300000000000000000000000000000000000000006020830152604082019050919050565b60006134f26030836139ac565b91507f4552433732314275726e61626c653a2063616c6c6572206973206e6f74206f7760008301527f6e6572206e6f7220617070726f766564000000000000000000000000000000006020830152604082019050919050565b61355481613aed565b82525050565b60006135668284612da0565b915081905092915050565b600061357d8285612da0565b91506135898284612da0565b91508190509392505050565b60006020820190506135aa6000830184612d10565b92915050565b60006080820190506135c56000830187612d10565b6135d26020830186612d10565b6135df604083018561354b565b81810360608301526135f18184612d2e565b905095945050505050565b60006020820190506136116000830184612d1f565b92915050565b600060208201905081810360008301526136318184612d67565b905092915050565b6000602082019050818103600083015261365281612dd1565b9050919050565b6000602082019050818103600083015261367281612e11565b9050919050565b6000602082019050818103600083015261369281612e77565b9050919050565b600060208201905081810360008301526136b281612edd565b9050919050565b600060208201905081810360008301526136d281612f43565b9050919050565b600060208201905081810360008301526136f281612f83565b9050919050565b6000602082019050818103600083015261371281612fe9565b9050919050565b6000602082019050818103600083015261373281613029565b9050919050565b600060208201905081810360008301526137528161308f565b9050919050565b60006020820190508181036000830152613772816130cf565b9050919050565b6000602082019050818103600083015261379281613135565b9050919050565b600060208201905081810360008301526137b28161319b565b9050919050565b600060208201905081810360008301526137d281613201565b9050919050565b600060208201905081810360008301526137f281613241565b9050919050565b60006020820190508181036000830152613812816132a7565b9050919050565b60006020820190508181036000830152613832816132e7565b9050919050565b600060208201905081810360008301526138528161334d565b9050919050565b60006020820190508181036000830152613872816133b3565b9050919050565b6000602082019050818103600083015261389281613419565b9050919050565b600060208201905081810360008301526138b28161347f565b9050919050565b600060208201905081810360008301526138d2816134e5565b9050919050565b60006020820190506138ee600083018461354b565b92915050565b6000604051905081810181811067ffffffffffffffff8211171561391b5761391a613c72565b5b8060405250919050565b600067ffffffffffffffff8211156139405761393f613c72565b5b601f19601f8301169050602081019050919050565b600067ffffffffffffffff8211156139705761396f613c72565b5b601f19601f8301169050602081019050919050565b600081519050919050565b600081519050919050565b600082825260208201905092915050565b600082825260208201905092915050565b600081905092915050565b60006139d382613aed565b91506139de83613aed565b9250827fffffffffffffffffffffffffffffffffffffffffffffffffffffffffffffffff03821115613a1357613a12613be5565b5b828201905092915050565b6000613a2982613aed565b9150613a3483613aed565b925082613a4457613a43613c14565b5b828204905092915050565b6000613a5a82613aed565b9150613a6583613aed565b925082821015613a7857613a77613be5565b5b828203905092915050565b6000613a8e82613acd565b9050919050565b60008115159050919050565b60007fffffffff0000000000000000000000000000000000000000000000000000000082169050919050565b600073ffffffffffffffffffffffffffffffffffffffff82169050919050565b6000819050919050565b82818337600083830152505050565b60005b83811015613b24578082015181840152602081019050613b09565b83811115613b33576000848401525b50505050565b60006002820490506001821680613b5157607f821691505b60208210811415613b6557613b64613c43565b5b50919050565b6000613b7682613aed565b91507fffffffffffffffffffffffffffffffffffffffffffffffffffffffffffffffff821415613ba957613ba8613be5565b5b600182019050919050565b6000613bbf82613aed565b9150613bca83613aed565b925082613bda57613bd9613c14565b5b828206905092915050565b7f4e487b7100000000000000000000000000000000000000000000000000000000600052601160045260246000fd5b7f4e487b7100000000000000000000000000000000000000000000000000000000600052601260045260246000fd5b7f4e487b7100000000000000000000000000000000000000000000000000000000600052602260045260246000fd5b7f4e487b7100000000000000000000000000000000000000000000000000000000600052604160045260246000fd5b6000601f19601f8301169050919050565b613cbb81613a83565b8114613cc657600080fd5b50565b613cd281613a95565b8114613cdd57600080fd5b50565b613ce981613aa1565b8114613cf457600080fd5b50565b613d0081613aed565b8114613d0b57600080fd5b5056fea264697066735822122092f7cc65bcf3c3d27728f441daaea33a9d48f2b9fa10c851fab4be4a3732c5ea64736f6c63430008000033",
  "immutableReferences": {},
  "source": "// SPDX-License-Identifier: MIT\npragma solidity 0.8.0;\n\nimport \"@openzeppelin/contracts/token/ERC721/ERC721.sol\";\nimport \"@openzeppelin/contracts/token/ERC721/extensions/ERC721Enumerable.sol\";\nimport \"@openzeppelin/contracts/security/Pausable.sol\";\nimport \"@openzeppelin/contracts/access/Ownable.sol\";\nimport \"@openzeppelin/contracts/token/ERC721/extensions/ERC721Burnable.sol\";\nimport \"@openzeppelin/contracts/utils/Counters.sol\";\n\ncontract Colour is ERC721, ERC721Enumerable, Pausable, Ownable, ERC721Burnable {\n    using Counters for Counters.Counter;\n    \n    string[] public colours;\n    mapping(string => bool) _colourExists;\n\n    Counters.Counter private _tokenIdCounter;\n\n    // contract name and token name\n    constructor() ERC721(\"Colour\", \"COLR\") {}\n\n    // create token\n    function safeMint(address to) public onlyOwner {\n        _safeMint(to, _tokenIdCounter.current());\n        _tokenIdCounter.increment();\n    }\n\n    // should be an owner for production use\n    function mint(string memory _colour) public { \n      require(!_colourExists[_colour]);\n    //   require(!_colourExists[_colour], 'Colour must be unique');\n      colours.push(_colour);\n      uint256 _id = colours.length;\n      _mint(msg.sender, _id);\n      _colourExists[_colour] = true;\n    }\n\n    // find colour via index\n    function getColour(uint index) external view returns(string memory) {\n        return colours[index];\n    }\n\n    // pause contract only owner\n    function pause() public onlyOwner {\n        _pause();\n    }\n\n    // unpause contract only owner\n    function unpause() public onlyOwner {\n        _unpause();\n    }\n\n    // \n    function _beforeTokenTransfer(address from, address to, uint256 tokenId)\n        internal\n        whenNotPaused\n        override(ERC721, ERC721Enumerable)\n    {\n        super._beforeTokenTransfer(from, to, tokenId);\n    }\n\n    //\n    function supportsInterface(bytes4 interfaceId)\n        public\n        view\n        override(ERC721, ERC721Enumerable)\n        returns (bool)\n    {\n        return super.supportsInterface(interfaceId);\n    }\n}\n\n",
  "sourcePath": "/Users/nicktaras/Documents/github/colour-app/src/contracts/Colour.sol",
  "compiler": {
    "name": "solc",
    "version": "0.8.0+commit.c7dfd78e.Emscripten.clang"
  },
  "schemaVersion": "3.3.3",
  "updatedAt": "2021-08-15T05:41:46.920Z",
  "networkType": "ethereum",
  "devdoc": {
    "kind": "dev",
    "methods": {
      "approve(address,uint256)": {
        "details": "See {IERC721-approve}."
      },
      "balanceOf(address)": {
        "details": "See {IERC721-balanceOf}."
      },
      "burn(uint256)": {
        "details": "Burns `tokenId`. See {ERC721-_burn}. Requirements: - The caller must own `tokenId` or be an approved operator."
      },
      "getApproved(uint256)": {
        "details": "See {IERC721-getApproved}."
      },
      "isApprovedForAll(address,address)": {
        "details": "See {IERC721-isApprovedForAll}."
      },
      "name()": {
        "details": "See {IERC721Metadata-name}."
      },
      "owner()": {
        "details": "Returns the address of the current owner."
      },
      "ownerOf(uint256)": {
        "details": "See {IERC721-ownerOf}."
      },
      "paused()": {
        "details": "Returns true if the contract is paused, and false otherwise."
      },
      "renounceOwnership()": {
        "details": "Leaves the contract without owner. It will not be possible to call `onlyOwner` functions anymore. Can only be called by the current owner. NOTE: Renouncing ownership will leave the contract without an owner, thereby removing any functionality that is only available to the owner."
      },
      "safeTransferFrom(address,address,uint256)": {
        "details": "See {IERC721-safeTransferFrom}."
      },
      "safeTransferFrom(address,address,uint256,bytes)": {
        "details": "See {IERC721-safeTransferFrom}."
      },
      "setApprovalForAll(address,bool)": {
        "details": "See {IERC721-setApprovalForAll}."
      },
      "symbol()": {
        "details": "See {IERC721Metadata-symbol}."
      },
      "tokenByIndex(uint256)": {
        "details": "See {IERC721Enumerable-tokenByIndex}."
      },
      "tokenOfOwnerByIndex(address,uint256)": {
        "details": "See {IERC721Enumerable-tokenOfOwnerByIndex}."
      },
      "tokenURI(uint256)": {
        "details": "See {IERC721Metadata-tokenURI}."
      },
      "totalSupply()": {
        "details": "See {IERC721Enumerable-totalSupply}."
      },
      "transferFrom(address,address,uint256)": {
        "details": "See {IERC721-transferFrom}."
      },
      "transferOwnership(address)": {
        "details": "Transfers ownership of the contract to a new account (`newOwner`). Can only be called by the current owner."
      }
    },
    "version": 1
  },
  "userdoc": {
    "kind": "user",
    "methods": {},
    "version": 1
  }
}