{
  "contractName": "Colour",
  "abi": [
    {
      "inputs": [],
      "stateMutability": "nonpayable",
      "type": "constructor"
    },
    {
      "anonymous": false,
      "inputs": [
        {
          "indexed": true,
          "internalType": "address",
          "name": "owner",
          "type": "address"
        },
        {
          "indexed": true,
          "internalType": "address",
          "name": "approved",
          "type": "address"
        },
        {
          "indexed": true,
          "internalType": "uint256",
          "name": "tokenId",
          "type": "uint256"
        }
      ],
      "name": "Approval",
      "type": "event"
    },
    {
      "anonymous": false,
      "inputs": [
        {
          "indexed": true,
          "internalType": "address",
          "name": "owner",
          "type": "address"
        },
        {
          "indexed": true,
          "internalType": "address",
          "name": "operator",
          "type": "address"
        },
        {
          "indexed": false,
          "internalType": "bool",
          "name": "approved",
          "type": "bool"
        }
      ],
      "name": "ApprovalForAll",
      "type": "event"
    },
    {
      "anonymous": false,
      "inputs": [
        {
          "indexed": true,
          "internalType": "address",
          "name": "previousOwner",
          "type": "address"
        },
        {
          "indexed": true,
          "internalType": "address",
          "name": "newOwner",
          "type": "address"
        }
      ],
      "name": "OwnershipTransferred",
      "type": "event"
    },
    {
      "anonymous": false,
      "inputs": [
        {
          "indexed": false,
          "internalType": "address",
          "name": "account",
          "type": "address"
        }
      ],
      "name": "Paused",
      "type": "event"
    },
    {
      "anonymous": false,
      "inputs": [
        {
          "indexed": true,
          "internalType": "address",
          "name": "from",
          "type": "address"
        },
        {
          "indexed": true,
          "internalType": "address",
          "name": "to",
          "type": "address"
        },
        {
          "indexed": true,
          "internalType": "uint256",
          "name": "tokenId",
          "type": "uint256"
        }
      ],
      "name": "Transfer",
      "type": "event"
    },
    {
      "anonymous": false,
      "inputs": [
        {
          "indexed": false,
          "internalType": "address",
          "name": "account",
          "type": "address"
        }
      ],
      "name": "Unpaused",
      "type": "event"
    },
    {
      "inputs": [
        {
          "internalType": "address",
          "name": "to",
          "type": "address"
        },
        {
          "internalType": "uint256",
          "name": "tokenId",
          "type": "uint256"
        }
      ],
      "name": "approve",
      "outputs": [],
      "stateMutability": "nonpayable",
      "type": "function"
    },
    {
      "inputs": [
        {
          "internalType": "address",
          "name": "owner",
          "type": "address"
        }
      ],
      "name": "balanceOf",
      "outputs": [
        {
          "internalType": "uint256",
          "name": "",
          "type": "uint256"
        }
      ],
      "stateMutability": "view",
      "type": "function"
    },
    {
      "inputs": [
        {
          "internalType": "uint256",
          "name": "tokenId",
          "type": "uint256"
        }
      ],
      "name": "burn",
      "outputs": [],
      "stateMutability": "nonpayable",
      "type": "function"
    },
    {
      "inputs": [
        {
          "internalType": "uint256",
          "name": "",
          "type": "uint256"
        }
      ],
      "name": "colours",
      "outputs": [
        {
          "internalType": "string",
          "name": "",
          "type": "string"
        }
      ],
      "stateMutability": "view",
      "type": "function"
    },
    {
      "inputs": [
        {
          "internalType": "uint256",
          "name": "tokenId",
          "type": "uint256"
        }
      ],
      "name": "getApproved",
      "outputs": [
        {
          "internalType": "address",
          "name": "",
          "type": "address"
        }
      ],
      "stateMutability": "view",
      "type": "function"
    },
    {
      "inputs": [
        {
          "internalType": "address",
          "name": "owner",
          "type": "address"
        },
        {
          "internalType": "address",
          "name": "operator",
          "type": "address"
        }
      ],
      "name": "isApprovedForAll",
      "outputs": [
        {
          "internalType": "bool",
          "name": "",
          "type": "bool"
        }
      ],
      "stateMutability": "view",
      "type": "function"
    },
    {
      "inputs": [],
      "name": "name",
      "outputs": [
        {
          "internalType": "string",
          "name": "",
          "type": "string"
        }
      ],
      "stateMutability": "view",
      "type": "function"
    },
    {
      "inputs": [],
      "name": "owner",
      "outputs": [
        {
          "internalType": "address",
          "name": "",
          "type": "address"
        }
      ],
      "stateMutability": "view",
      "type": "function"
    },
    {
      "inputs": [
        {
          "internalType": "uint256",
          "name": "tokenId",
          "type": "uint256"
        }
      ],
      "name": "ownerOf",
      "outputs": [
        {
          "internalType": "address",
          "name": "",
          "type": "address"
        }
      ],
      "stateMutability": "view",
      "type": "function"
    },
    {
      "inputs": [],
      "name": "paused",
      "outputs": [
        {
          "internalType": "bool",
          "name": "",
          "type": "bool"
        }
      ],
      "stateMutability": "view",
      "type": "function"
    },
    {
      "inputs": [],
      "name": "renounceOwnership",
      "outputs": [],
      "stateMutability": "nonpayable",
      "type": "function"
    },
    {
      "inputs": [
        {
          "internalType": "address",
          "name": "from",
          "type": "address"
        },
        {
          "internalType": "address",
          "name": "to",
          "type": "address"
        },
        {
          "internalType": "uint256",
          "name": "tokenId",
          "type": "uint256"
        }
      ],
      "name": "safeTransferFrom",
      "outputs": [],
      "stateMutability": "nonpayable",
      "type": "function"
    },
    {
      "inputs": [
        {
          "internalType": "address",
          "name": "from",
          "type": "address"
        },
        {
          "internalType": "address",
          "name": "to",
          "type": "address"
        },
        {
          "internalType": "uint256",
          "name": "tokenId",
          "type": "uint256"
        },
        {
          "internalType": "bytes",
          "name": "_data",
          "type": "bytes"
        }
      ],
      "name": "safeTransferFrom",
      "outputs": [],
      "stateMutability": "nonpayable",
      "type": "function"
    },
    {
      "inputs": [
        {
          "internalType": "address",
          "name": "operator",
          "type": "address"
        },
        {
          "internalType": "bool",
          "name": "approved",
          "type": "bool"
        }
      ],
      "name": "setApprovalForAll",
      "outputs": [],
      "stateMutability": "nonpayable",
      "type": "function"
    },
    {
      "inputs": [],
      "name": "symbol",
      "outputs": [
        {
          "internalType": "string",
          "name": "",
          "type": "string"
        }
      ],
      "stateMutability": "view",
      "type": "function"
    },
    {
      "inputs": [
        {
          "internalType": "uint256",
          "name": "index",
          "type": "uint256"
        }
      ],
      "name": "tokenByIndex",
      "outputs": [
        {
          "internalType": "uint256",
          "name": "",
          "type": "uint256"
        }
      ],
      "stateMutability": "view",
      "type": "function"
    },
    {
      "inputs": [
        {
          "internalType": "address",
          "name": "owner",
          "type": "address"
        },
        {
          "internalType": "uint256",
          "name": "index",
          "type": "uint256"
        }
      ],
      "name": "tokenOfOwnerByIndex",
      "outputs": [
        {
          "internalType": "uint256",
          "name": "",
          "type": "uint256"
        }
      ],
      "stateMutability": "view",
      "type": "function"
    },
    {
      "inputs": [
        {
          "internalType": "uint256",
          "name": "tokenId",
          "type": "uint256"
        }
      ],
      "name": "tokenURI",
      "outputs": [
        {
          "internalType": "string",
          "name": "",
          "type": "string"
        }
      ],
      "stateMutability": "view",
      "type": "function"
    },
    {
      "inputs": [],
      "name": "totalSupply",
      "outputs": [
        {
          "internalType": "uint256",
          "name": "",
          "type": "uint256"
        }
      ],
      "stateMutability": "view",
      "type": "function"
    },
    {
      "inputs": [
        {
          "internalType": "address",
          "name": "from",
          "type": "address"
        },
        {
          "internalType": "address",
          "name": "to",
          "type": "address"
        },
        {
          "internalType": "uint256",
          "name": "tokenId",
          "type": "uint256"
        }
      ],
      "name": "transferFrom",
      "outputs": [],
      "stateMutability": "nonpayable",
      "type": "function"
    },
    {
      "inputs": [
        {
          "internalType": "address",
          "name": "newOwner",
          "type": "address"
        }
      ],
      "name": "transferOwnership",
      "outputs": [],
      "stateMutability": "nonpayable",
      "type": "function"
    },
    {
      "inputs": [
        {
          "internalType": "address",
          "name": "to",
          "type": "address"
        }
      ],
      "name": "safeMint",
      "outputs": [],
      "stateMutability": "nonpayable",
      "type": "function"
    },
    {
      "inputs": [
        {
          "internalType": "string",
          "name": "_colour",
          "type": "string"
        }
      ],
      "name": "mint",
      "outputs": [],
      "stateMutability": "nonpayable",
      "type": "function"
    },
    {
      "inputs": [
        {
          "internalType": "uint256",
          "name": "index",
          "type": "uint256"
        }
      ],
      "name": "getColour",
      "outputs": [
        {
          "internalType": "string",
          "name": "",
          "type": "string"
        }
      ],
      "stateMutability": "view",
      "type": "function"
    },
    {
      "inputs": [],
      "name": "pause",
      "outputs": [],
      "stateMutability": "nonpayable",
      "type": "function"
    },
    {
      "inputs": [],
      "name": "unpause",
      "outputs": [],
      "stateMutability": "nonpayable",
      "type": "function"
    },
    {
      "inputs": [
        {
          "internalType": "bytes4",
          "name": "interfaceId",
          "type": "bytes4"
        }
      ],
      "name": "supportsInterface",
      "outputs": [
        {
          "internalType": "bool",
          "name": "",
          "type": "bool"
        }
      ],
      "stateMutability": "view",
      "type": "function"
    }
  ],
  "bytecode": "0x60806040523480156200001157600080fd5b506040518060400160405280600681526020017f436f6c6f757200000000000000000000000000000000000000000000000000008152506040518060400160405280600481526020017f434f4c5200000000000000000000000000000000000000000000000000000000815250816000908051906020019062000096929190620001c1565b508060019080519060200190620000af929190620001c1565b5050506000600a60006101000a81548160ff021916908315150217905550620000ed620000e1620000f360201b60201c565b620000fb60201b60201c565b620002d6565b600033905090565b6000600a60019054906101000a900473ffffffffffffffffffffffffffffffffffffffff16905081600a60016101000a81548173ffffffffffffffffffffffffffffffffffffffff021916908373ffffffffffffffffffffffffffffffffffffffff1602179055508173ffffffffffffffffffffffffffffffffffffffff168173ffffffffffffffffffffffffffffffffffffffff167f8be0079c531659141344cd1fd0a4f28419497f9722a3daafe3b4186f6b6457e060405160405180910390a35050565b828054620001cf9062000271565b90600052602060002090601f016020900481019282620001f357600085556200023f565b82601f106200020e57805160ff19168380011785556200023f565b828001600101855582156200023f579182015b828111156200023e57825182559160200191906001019062000221565b5b5090506200024e919062000252565b5090565b5b808211156200026d57600081600090555060010162000253565b5090565b600060028204905060018216806200028a57607f821691505b60208210811415620002a157620002a0620002a7565b5b50919050565b7f4e487b7100000000000000000000000000000000000000000000000000000000600052602260045260246000fd5b613dda80620002e66000396000f3fe608060405234801561001057600080fd5b50600436106101a95760003560e01c80635c975abb116100f9578063a22cb46511610097578063c87b56dd11610071578063c87b56dd146104a6578063d85d3d27146104d6578063e985e9c5146104f2578063f2fde38b14610522576101a9565b8063a22cb4651461043e578063b88d4fde1461045a578063c76ab94014610476576101a9565b8063715018a6116100d3578063715018a6146103ee5780638456cb59146103f85780638da5cb5b1461040257806395d89b4114610420576101a9565b80635c975abb146103705780636352211e1461038e57806370a08231146103be576101a9565b80632f745c591161016657806340d097c31161014057806340d097c3146102ec57806342842e0e1461030857806342966c68146103245780634f6ccce714610340576101a9565b80632f745c591461028257806334aedda9146102b25780633f4ba83a146102e2576101a9565b806301ffc9a7146101ae57806306fdde03146101de578063081812fc146101fc578063095ea7b31461022c57806318160ddd1461024857806323b872dd14610266575b600080fd5b6101c860048036038101906101c39190612c8a565b61053e565b6040516101d59190613672565b60405180910390f35b6101e6610550565b6040516101f3919061368d565b60405180910390f35b61021660048036038101906102119190612d1d565b6105e2565b604051610223919061360b565b60405180910390f35b61024660048036038101906102419190612c4e565b610667565b005b61025061077f565b60405161025d919061396f565b60405180910390f35b610280600480360381019061027b9190612b48565b61078c565b005b61029c60048036038101906102979190612c4e565b6107ec565b6040516102a9919061396f565b60405180910390f35b6102cc60048036038101906102c79190612d1d565b610891565b6040516102d9919061368d565b60405180910390f35b6102ea610967565b005b61030660048036038101906103019190612ae3565b6109ed565b005b610322600480360381019061031d9190612b48565b610a89565b005b61033e60048036038101906103399190612d1d565b610aa9565b005b61035a60048036038101906103559190612d1d565b610b05565b604051610367919061396f565b60405180910390f35b610378610b9c565b6040516103859190613672565b60405180910390f35b6103a860048036038101906103a39190612d1d565b610bb3565b6040516103b5919061360b565b60405180910390f35b6103d860048036038101906103d39190612ae3565b610c65565b6040516103e5919061396f565b60405180910390f35b6103f6610d1d565b005b610400610da5565b005b61040a610e2b565b604051610417919061360b565b60405180910390f35b610428610e55565b604051610435919061368d565b60405180910390f35b61045860048036038101906104539190612c12565b610ee7565b005b610474600480360381019061046f9190612b97565b611068565b005b610490600480360381019061048b9190612d1d565b6110ca565b60405161049d919061368d565b60405180910390f35b6104c060048036038101906104bb9190612d1d565b611176565b6040516104cd919061368d565b60405180910390f35b6104f060048036038101906104eb9190612cdc565b61121d565b005b61050c60048036038101906105079190612b0c565b611314565b6040516105199190613672565b60405180910390f35b61053c60048036038101906105379190612ae3565b6113a8565b005b6000610549826114a0565b9050919050565b60606000805461055f90613bcf565b80601f016020809104026020016040519081016040528092919081815260200182805461058b90613bcf565b80156105d85780601f106105ad576101008083540402835291602001916105d8565b820191906000526020600020905b8154815290600101906020018083116105bb57829003601f168201915b5050505050905090565b60006105ed8261151a565b61062c576040517f08c379a00000000000000000000000000000000000000000000000000000000081526004016106239061386f565b60405180910390fd5b6004600083815260200190815260200160002060009054906101000a900473ffffffffffffffffffffffffffffffffffffffff169050919050565b600061067282610bb3565b90508073ffffffffffffffffffffffffffffffffffffffff168373ffffffffffffffffffffffffffffffffffffffff1614156106e3576040517f08c379a00000000000000000000000000000000000000000000000000000000081526004016106da906138ef565b60405180910390fd5b8073ffffffffffffffffffffffffffffffffffffffff16610702611586565b73ffffffffffffffffffffffffffffffffffffffff16148061073157506107308161072b611586565b611314565b5b610770576040517f08c379a0000000000000000000000000000000000000000000000000000000008152600401610767906137ef565b60405180910390fd5b61077a838361158e565b505050565b6000600880549050905090565b61079d610797611586565b82611647565b6107dc576040517f08c379a00000000000000000000000000000000000000000000000000000000081526004016107d39061390f565b60405180910390fd5b6107e7838383611725565b505050565b60006107f783610c65565b8210610838576040517f08c379a000000000000000000000000000000000000000000000000000000000815260040161082f906136cf565b60405180910390fd5b600660008473ffffffffffffffffffffffffffffffffffffffff1673ffffffffffffffffffffffffffffffffffffffff168152602001908152602001600020600083815260200190815260200160002054905092915050565b6060600b82815481106108cd577f4e487b7100000000000000000000000000000000000000000000000000000000600052603260045260246000fd5b9060005260206000200180546108e290613bcf565b80601f016020809104026020016040519081016040528092919081815260200182805461090e90613bcf565b801561095b5780601f106109305761010080835404028352916020019161095b565b820191906000526020600020905b81548152906001019060200180831161093e57829003601f168201915b50505050509050919050565b61096f611586565b73ffffffffffffffffffffffffffffffffffffffff1661098d610e2b565b73ffffffffffffffffffffffffffffffffffffffff16146109e3576040517f08c379a00000000000000000000000000000000000000000000000000000000081526004016109da9061388f565b60405180910390fd5b6109eb611981565b565b6109f5611586565b73ffffffffffffffffffffffffffffffffffffffff16610a13610e2b565b73ffffffffffffffffffffffffffffffffffffffff1614610a69576040517f08c379a0000000000000000000000000000000000000000000000000000000008152600401610a609061388f565b60405180910390fd5b610a7c81610a77600d611a23565b611a31565b610a86600d611a4f565b50565b610aa483838360405180602001604052806000815250611068565b505050565b610aba610ab4611586565b82611647565b610af9576040517f08c379a0000000000000000000000000000000000000000000000000000000008152600401610af09061394f565b60405180910390fd5b610b0281611a65565b50565b6000610b0f61077f565b8210610b50576040517f08c379a0000000000000000000000000000000000000000000000000000000008152600401610b479061392f565b60405180910390fd5b60088281548110610b8a577f4e487b7100000000000000000000000000000000000000000000000000000000600052603260045260246000fd5b90600052602060002001549050919050565b6000600a60009054906101000a900460ff16905090565b6000806002600084815260200190815260200160002060009054906101000a900473ffffffffffffffffffffffffffffffffffffffff169050600073ffffffffffffffffffffffffffffffffffffffff168173ffffffffffffffffffffffffffffffffffffffff161415610c5c576040517f08c379a0000000000000000000000000000000000000000000000000000000008152600401610c539061382f565b60405180910390fd5b80915050919050565b60008073ffffffffffffffffffffffffffffffffffffffff168273ffffffffffffffffffffffffffffffffffffffff161415610cd6576040517f08c379a0000000000000000000000000000000000000000000000000000000008152600401610ccd9061380f565b60405180910390fd5b600360008373ffffffffffffffffffffffffffffffffffffffff1673ffffffffffffffffffffffffffffffffffffffff168152602001908152602001600020549050919050565b610d25611586565b73ffffffffffffffffffffffffffffffffffffffff16610d43610e2b565b73ffffffffffffffffffffffffffffffffffffffff1614610d99576040517f08c379a0000000000000000000000000000000000000000000000000000000008152600401610d909061388f565b60405180910390fd5b610da36000611b76565b565b610dad611586565b73ffffffffffffffffffffffffffffffffffffffff16610dcb610e2b565b73ffffffffffffffffffffffffffffffffffffffff1614610e21576040517f08c379a0000000000000000000000000000000000000000000000000000000008152600401610e189061388f565b60405180910390fd5b610e29611c3c565b565b6000600a60019054906101000a900473ffffffffffffffffffffffffffffffffffffffff16905090565b606060018054610e6490613bcf565b80601f0160208091040260200160405190810160405280929190818152602001828054610e9090613bcf565b8015610edd5780601f10610eb257610100808354040283529160200191610edd565b820191906000526020600020905b815481529060010190602001808311610ec057829003601f168201915b5050505050905090565b610eef611586565b73ffffffffffffffffffffffffffffffffffffffff168273ffffffffffffffffffffffffffffffffffffffff161415610f5d576040517f08c379a0000000000000000000000000000000000000000000000000000000008152600401610f549061378f565b60405180910390fd5b8060056000610f6a611586565b73ffffffffffffffffffffffffffffffffffffffff1673ffffffffffffffffffffffffffffffffffffffff16815260200190815260200160002060008473ffffffffffffffffffffffffffffffffffffffff1673ffffffffffffffffffffffffffffffffffffffff16815260200190815260200160002060006101000a81548160ff0219169083151502179055508173ffffffffffffffffffffffffffffffffffffffff16611017611586565b73ffffffffffffffffffffffffffffffffffffffff167f17307eab39ab6107e8899845ad3d59bd9653f200f220920489ca2b5937696c318360405161105c9190613672565b60405180910390a35050565b611079611073611586565b83611647565b6110b8576040517f08c379a00000000000000000000000000000000000000000000000000000000081526004016110af9061390f565b60405180910390fd5b6110c484848484611cdf565b50505050565b600b81815481106110da57600080fd5b9060005260206000200160009150905080546110f590613bcf565b80601f016020809104026020016040519081016040528092919081815260200182805461112190613bcf565b801561116e5780601f106111435761010080835404028352916020019161116e565b820191906000526020600020905b81548152906001019060200180831161115157829003601f168201915b505050505081565b60606111818261151a565b6111c0576040517f08c379a00000000000000000000000000000000000000000000000000000000081526004016111b7906138cf565b60405180910390fd5b60006111ca611d3b565b905060008151116111ea5760405180602001604052806000815250611215565b806111f484611d52565b6040516020016112059291906135e7565b6040516020818303038152906040525b915050919050565b600c8160405161122d91906135d0565b908152602001604051809103902060009054906101000a900460ff1615611289576040517f08c379a00000000000000000000000000000000000000000000000000000000081526004016112809061370f565b60405180910390fd5b600b819080600181540180825580915050600190039060005260206000200160009091909190915090805190602001906112c4929190612907565b506000600b8054905090506112d93382611eff565b6001600c836040516112eb91906135d0565b908152602001604051809103902060006101000a81548160ff0219169083151502179055505050565b6000600560008473ffffffffffffffffffffffffffffffffffffffff1673ffffffffffffffffffffffffffffffffffffffff16815260200190815260200160002060008373ffffffffffffffffffffffffffffffffffffffff1673ffffffffffffffffffffffffffffffffffffffff16815260200190815260200160002060009054906101000a900460ff16905092915050565b6113b0611586565b73ffffffffffffffffffffffffffffffffffffffff166113ce610e2b565b73ffffffffffffffffffffffffffffffffffffffff1614611424576040517f08c379a000000000000000000000000000000000000000000000000000000000815260040161141b9061388f565b60405180910390fd5b600073ffffffffffffffffffffffffffffffffffffffff168173ffffffffffffffffffffffffffffffffffffffff161415611494576040517f08c379a000000000000000000000000000000000000000000000000000000000815260040161148b9061372f565b60405180910390fd5b61149d81611b76565b50565b60007f780e9d63000000000000000000000000000000000000000000000000000000007bffffffffffffffffffffffffffffffffffffffffffffffffffffffff1916827bffffffffffffffffffffffffffffffffffffffffffffffffffffffff191614806115135750611512826120cd565b5b9050919050565b60008073ffffffffffffffffffffffffffffffffffffffff166002600084815260200190815260200160002060009054906101000a900473ffffffffffffffffffffffffffffffffffffffff1673ffffffffffffffffffffffffffffffffffffffff1614159050919050565b600033905090565b816004600083815260200190815260200160002060006101000a81548173ffffffffffffffffffffffffffffffffffffffff021916908373ffffffffffffffffffffffffffffffffffffffff160217905550808273ffffffffffffffffffffffffffffffffffffffff1661160183610bb3565b73ffffffffffffffffffffffffffffffffffffffff167f8c5be1e5ebec7d5bd14f71427d1e84f3dd0314c0f7b2291e5b200ac8c7c3b92560405160405180910390a45050565b60006116528261151a565b611691576040517f08c379a0000000000000000000000000000000000000000000000000000000008152600401611688906137af565b60405180910390fd5b600061169c83610bb3565b90508073ffffffffffffffffffffffffffffffffffffffff168473ffffffffffffffffffffffffffffffffffffffff16148061170b57508373ffffffffffffffffffffffffffffffffffffffff166116f3846105e2565b73ffffffffffffffffffffffffffffffffffffffff16145b8061171c575061171b8185611314565b5b91505092915050565b8273ffffffffffffffffffffffffffffffffffffffff1661174582610bb3565b73ffffffffffffffffffffffffffffffffffffffff161461179b576040517f08c379a0000000000000000000000000000000000000000000000000000000008152600401611792906138af565b60405180910390fd5b600073ffffffffffffffffffffffffffffffffffffffff168273ffffffffffffffffffffffffffffffffffffffff16141561180b576040517f08c379a00000000000000000000000000000000000000000000000000000000081526004016118029061376f565b60405180910390fd5b6118168383836121af565b61182160008261158e565b6001600360008573ffffffffffffffffffffffffffffffffffffffff1673ffffffffffffffffffffffffffffffffffffffff16815260200190815260200160002060008282546118719190613ae5565b925050819055506001600360008473ffffffffffffffffffffffffffffffffffffffff1673ffffffffffffffffffffffffffffffffffffffff16815260200190815260200160002060008282546118c89190613a5e565b92505081905550816002600083815260200190815260200160002060006101000a81548173ffffffffffffffffffffffffffffffffffffffff021916908373ffffffffffffffffffffffffffffffffffffffff160217905550808273ffffffffffffffffffffffffffffffffffffffff168473ffffffffffffffffffffffffffffffffffffffff167fddf252ad1be2c89b69c2b068fc378daa952ba7f163c4a11628f55a4df523b3ef60405160405180910390a4505050565b611989610b9c565b6119c8576040517f08c379a00000000000000000000000000000000000000000000000000000000081526004016119bf906136af565b60405180910390fd5b6000600a60006101000a81548160ff0219169083151502179055507f5db9ee0a495bf2e6ff9c91a7834c1ba4fdd244a5e8aa4e537bd38aeae4b073aa611a0c611586565b604051611a19919061360b565b60405180910390a1565b600081600001549050919050565b611a4b828260405180602001604052806000815250612207565b5050565b6001816000016000828254019250508190555050565b6000611a7082610bb3565b9050611a7e816000846121af565b611a8960008361158e565b6001600360008373ffffffffffffffffffffffffffffffffffffffff1673ffffffffffffffffffffffffffffffffffffffff1681526020019081526020016000206000828254611ad99190613ae5565b925050819055506002600083815260200190815260200160002060006101000a81549073ffffffffffffffffffffffffffffffffffffffff021916905581600073ffffffffffffffffffffffffffffffffffffffff168273ffffffffffffffffffffffffffffffffffffffff167fddf252ad1be2c89b69c2b068fc378daa952ba7f163c4a11628f55a4df523b3ef60405160405180910390a45050565b6000600a60019054906101000a900473ffffffffffffffffffffffffffffffffffffffff16905081600a60016101000a81548173ffffffffffffffffffffffffffffffffffffffff021916908373ffffffffffffffffffffffffffffffffffffffff1602179055508173ffffffffffffffffffffffffffffffffffffffff168173ffffffffffffffffffffffffffffffffffffffff167f8be0079c531659141344cd1fd0a4f28419497f9722a3daafe3b4186f6b6457e060405160405180910390a35050565b611c44610b9c565b15611c84576040517f08c379a0000000000000000000000000000000000000000000000000000000008152600401611c7b906137cf565b60405180910390fd5b6001600a60006101000a81548160ff0219169083151502179055507f62e78cea01bee320cd4e420270b5ea74000d11b0c9f74754ebdbfc544b05a258611cc8611586565b604051611cd5919061360b565b60405180910390a1565b611cea848484611725565b611cf684848484612262565b611d35576040517f08c379a0000000000000000000000000000000000000000000000000000000008152600401611d2c906136ef565b60405180910390fd5b50505050565b606060405180602001604052806000815250905090565b60606000821415611d9a576040518060400160405280600181526020017f30000000000000000000000000000000000000000000000000000000000000008152509050611efa565b600082905060005b60008214611dcc578080611db590613c01565b915050600a82611dc59190613ab4565b9150611da2565b60008167ffffffffffffffff811115611e0e577f4e487b7100000000000000000000000000000000000000000000000000000000600052604160045260246000fd5b6040519080825280601f01601f191660200182016040528015611e405781602001600182028036833780820191505090505b5090505b60008514611ef357600182611e599190613ae5565b9150600a85611e689190613c4a565b6030611e749190613a5e565b60f81b818381518110611eb0577f4e487b7100000000000000000000000000000000000000000000000000000000600052603260045260246000fd5b60200101907effffffffffffffffffffffffffffffffffffffffffffffffffffffffffffff1916908160001a905350600a85611eec9190613ab4565b9450611e44565b8093505050505b919050565b600073ffffffffffffffffffffffffffffffffffffffff168273ffffffffffffffffffffffffffffffffffffffff161415611f6f576040517f08c379a0000000000000000000000000000000000000000000000000000000008152600401611f669061384f565b60405180910390fd5b611f788161151a565b15611fb8576040517f08c379a0000000000000000000000000000000000000000000000000000000008152600401611faf9061374f565b60405180910390fd5b611fc4600083836121af565b6001600360008473ffffffffffffffffffffffffffffffffffffffff1673ffffffffffffffffffffffffffffffffffffffff16815260200190815260200160002060008282546120149190613a5e565b92505081905550816002600083815260200190815260200160002060006101000a81548173ffffffffffffffffffffffffffffffffffffffff021916908373ffffffffffffffffffffffffffffffffffffffff160217905550808273ffffffffffffffffffffffffffffffffffffffff16600073ffffffffffffffffffffffffffffffffffffffff167fddf252ad1be2c89b69c2b068fc378daa952ba7f163c4a11628f55a4df523b3ef60405160405180910390a45050565b60007f80ac58cd000000000000000000000000000000000000000000000000000000007bffffffffffffffffffffffffffffffffffffffffffffffffffffffff1916827bffffffffffffffffffffffffffffffffffffffffffffffffffffffff1916148061219857507f5b5e139f000000000000000000000000000000000000000000000000000000007bffffffffffffffffffffffffffffffffffffffffffffffffffffffff1916827bffffffffffffffffffffffffffffffffffffffffffffffffffffffff1916145b806121a857506121a7826123f9565b5b9050919050565b6121b7610b9c565b156121f7576040517f08c379a00000000000000000000000000000000000000000000000000000000081526004016121ee906137cf565b60405180910390fd5b612202838383612463565b505050565b6122118383611eff565b61221e6000848484612262565b61225d576040517f08c379a0000000000000000000000000000000000000000000000000000000008152600401612254906136ef565b60405180910390fd5b505050565b60006122838473ffffffffffffffffffffffffffffffffffffffff16612577565b156123ec578373ffffffffffffffffffffffffffffffffffffffff1663150b7a026122ac611586565b8786866040518563ffffffff1660e01b81526004016122ce9493929190613626565b602060405180830381600087803b1580156122e857600080fd5b505af192505050801561231957506040513d601f19601f820116820180604052508101906123169190612cb3565b60015b61239c573d8060008114612349576040519150601f19603f3d011682016040523d82523d6000602084013e61234e565b606091505b50600081511415612394576040517f08c379a000000000000000000000000000000000000000000000000000000000815260040161238b906136ef565b60405180910390fd5b805181602001fd5b63150b7a0260e01b7bffffffffffffffffffffffffffffffffffffffffffffffffffffffff1916817bffffffffffffffffffffffffffffffffffffffffffffffffffffffff1916149150506123f1565b600190505b949350505050565b60007f01ffc9a7000000000000000000000000000000000000000000000000000000007bffffffffffffffffffffffffffffffffffffffffffffffffffffffff1916827bffffffffffffffffffffffffffffffffffffffffffffffffffffffff1916149050919050565b61246e83838361258a565b600073ffffffffffffffffffffffffffffffffffffffff168373ffffffffffffffffffffffffffffffffffffffff1614156124b1576124ac8161258f565b6124f0565b8173ffffffffffffffffffffffffffffffffffffffff168373ffffffffffffffffffffffffffffffffffffffff16146124ef576124ee83826125d8565b5b5b600073ffffffffffffffffffffffffffffffffffffffff168273ffffffffffffffffffffffffffffffffffffffff1614156125335761252e81612745565b612572565b8273ffffffffffffffffffffffffffffffffffffffff168273ffffffffffffffffffffffffffffffffffffffff1614612571576125708282612888565b5b5b505050565b600080823b905060008111915050919050565b505050565b6008805490506009600083815260200190815260200160002081905550600881908060018154018082558091505060019003906000526020600020016000909190919091505550565b600060016125e584610c65565b6125ef9190613ae5565b90506000600760008481526020019081526020016000205490508181146126d4576000600660008673ffffffffffffffffffffffffffffffffffffffff1673ffffffffffffffffffffffffffffffffffffffff168152602001908152602001600020600084815260200190815260200160002054905080600660008773ffffffffffffffffffffffffffffffffffffffff1673ffffffffffffffffffffffffffffffffffffffff168152602001908152602001600020600084815260200190815260200160002081905550816007600083815260200190815260200160002081905550505b6007600084815260200190815260200160002060009055600660008573ffffffffffffffffffffffffffffffffffffffff1673ffffffffffffffffffffffffffffffffffffffff16815260200190815260200160002060008381526020019081526020016000206000905550505050565b600060016008805490506127599190613ae5565b90506000600960008481526020019081526020016000205490506000600883815481106127af577f4e487b7100000000000000000000000000000000000000000000000000000000600052603260045260246000fd5b9060005260206000200154905080600883815481106127f7577f4e487b7100000000000000000000000000000000000000000000000000000000600052603260045260246000fd5b90600052602060002001819055508160096000838152602001908152602001600020819055506009600085815260200190815260200160002060009055600880548061286c577f4e487b7100000000000000000000000000000000000000000000000000000000600052603160045260246000fd5b6001900381819060005260206000200160009055905550505050565b600061289383610c65565b905081600660008573ffffffffffffffffffffffffffffffffffffffff1673ffffffffffffffffffffffffffffffffffffffff168152602001908152602001600020600083815260200190815260200160002081905550806007600084815260200190815260200160002081905550505050565b82805461291390613bcf565b90600052602060002090601f016020900481019282612935576000855561297c565b82601f1061294e57805160ff191683800117855561297c565b8280016001018555821561297c579182015b8281111561297b578251825591602001919060010190612960565b5b509050612989919061298d565b5090565b5b808211156129a657600081600090555060010161298e565b5090565b60006129bd6129b8846139bb565b61398a565b9050828152602081018484840111156129d557600080fd5b6129e0848285613b8d565b509392505050565b60006129fb6129f6846139eb565b61398a565b905082815260208101848484011115612a1357600080fd5b612a1e848285613b8d565b509392505050565b600081359050612a3581613d48565b92915050565b600081359050612a4a81613d5f565b92915050565b600081359050612a5f81613d76565b92915050565b600081519050612a7481613d76565b92915050565b600082601f830112612a8b57600080fd5b8135612a9b8482602086016129aa565b91505092915050565b600082601f830112612ab557600080fd5b8135612ac58482602086016129e8565b91505092915050565b600081359050612add81613d8d565b92915050565b600060208284031215612af557600080fd5b6000612b0384828501612a26565b91505092915050565b60008060408385031215612b1f57600080fd5b6000612b2d85828601612a26565b9250506020612b3e85828601612a26565b9150509250929050565b600080600060608486031215612b5d57600080fd5b6000612b6b86828701612a26565b9350506020612b7c86828701612a26565b9250506040612b8d86828701612ace565b9150509250925092565b60008060008060808587031215612bad57600080fd5b6000612bbb87828801612a26565b9450506020612bcc87828801612a26565b9350506040612bdd87828801612ace565b925050606085013567ffffffffffffffff811115612bfa57600080fd5b612c0687828801612a7a565b91505092959194509250565b60008060408385031215612c2557600080fd5b6000612c3385828601612a26565b9250506020612c4485828601612a3b565b9150509250929050565b60008060408385031215612c6157600080fd5b6000612c6f85828601612a26565b9250506020612c8085828601612ace565b9150509250929050565b600060208284031215612c9c57600080fd5b6000612caa84828501612a50565b91505092915050565b600060208284031215612cc557600080fd5b6000612cd384828501612a65565b91505092915050565b600060208284031215612cee57600080fd5b600082013567ffffffffffffffff811115612d0857600080fd5b612d1484828501612aa4565b91505092915050565b600060208284031215612d2f57600080fd5b6000612d3d84828501612ace565b91505092915050565b612d4f81613b19565b82525050565b612d5e81613b2b565b82525050565b6000612d6f82613a1b565b612d798185613a31565b9350612d89818560208601613b9c565b612d9281613d37565b840191505092915050565b6000612da882613a26565b612db28185613a42565b9350612dc2818560208601613b9c565b612dcb81613d37565b840191505092915050565b6000612de182613a26565b612deb8185613a53565b9350612dfb818560208601613b9c565b80840191505092915050565b6000612e14601483613a42565b91507f5061757361626c653a206e6f74207061757365640000000000000000000000006000830152602082019050919050565b6000612e54602b83613a42565b91507f455243373231456e756d657261626c653a206f776e657220696e646578206f7560008301527f74206f6620626f756e64730000000000000000000000000000000000000000006020830152604082019050919050565b6000612eba603283613a42565b91507f4552433732313a207472616e7366657220746f206e6f6e20455243373231526560008301527f63656976657220696d706c656d656e74657200000000000000000000000000006020830152604082019050919050565b6000612f20601583613a42565b91507f436f6c6f7572206d75737420626520756e6971756500000000000000000000006000830152602082019050919050565b6000612f60602683613a42565b91507f4f776e61626c653a206e6577206f776e657220697320746865207a65726f206160008301527f64647265737300000000000000000000000000000000000000000000000000006020830152604082019050919050565b6000612fc6601c83613a42565b91507f4552433732313a20746f6b656e20616c7265616479206d696e746564000000006000830152602082019050919050565b6000613006602483613a42565b91507f4552433732313a207472616e7366657220746f20746865207a65726f2061646460008301527f72657373000000000000000000000000000000000000000000000000000000006020830152604082019050919050565b600061306c601983613a42565b91507f4552433732313a20617070726f766520746f2063616c6c6572000000000000006000830152602082019050919050565b60006130ac602c83613a42565b91507f4552433732313a206f70657261746f7220717565727920666f72206e6f6e657860008301527f697374656e7420746f6b656e00000000000000000000000000000000000000006020830152604082019050919050565b6000613112601083613a42565b91507f5061757361626c653a20706175736564000000000000000000000000000000006000830152602082019050919050565b6000613152603883613a42565b91507f4552433732313a20617070726f76652063616c6c6572206973206e6f74206f7760008301527f6e6572206e6f7220617070726f76656420666f7220616c6c00000000000000006020830152604082019050919050565b60006131b8602a83613a42565b91507f4552433732313a2062616c616e636520717565727920666f7220746865207a6560008301527f726f2061646472657373000000000000000000000000000000000000000000006020830152604082019050919050565b600061321e602983613a42565b91507f4552433732313a206f776e657220717565727920666f72206e6f6e657869737460008301527f656e7420746f6b656e00000000000000000000000000000000000000000000006020830152604082019050919050565b6000613284602083613a42565b91507f4552433732313a206d696e7420746f20746865207a65726f20616464726573736000830152602082019050919050565b60006132c4602c83613a42565b91507f4552433732313a20617070726f76656420717565727920666f72206e6f6e657860008301527f697374656e7420746f6b656e00000000000000000000000000000000000000006020830152604082019050919050565b600061332a602083613a42565b91507f4f776e61626c653a2063616c6c6572206973206e6f7420746865206f776e65726000830152602082019050919050565b600061336a602983613a42565b91507f4552433732313a207472616e73666572206f6620746f6b656e2074686174206960008301527f73206e6f74206f776e00000000000000000000000000000000000000000000006020830152604082019050919050565b60006133d0602f83613a42565b91507f4552433732314d657461646174613a2055524920717565727920666f72206e6f60008301527f6e6578697374656e7420746f6b656e00000000000000000000000000000000006020830152604082019050919050565b6000613436602183613a42565b91507f4552433732313a20617070726f76616c20746f2063757272656e74206f776e6560008301527f72000000000000000000000000000000000000000000000000000000000000006020830152604082019050919050565b600061349c603183613a42565b91507f4552433732313a207472616e736665722063616c6c6572206973206e6f74206f60008301527f776e6572206e6f7220617070726f7665640000000000000000000000000000006020830152604082019050919050565b6000613502602c83613a42565b91507f455243373231456e756d657261626c653a20676c6f62616c20696e646578206f60008301527f7574206f6620626f756e647300000000000000000000000000000000000000006020830152604082019050919050565b6000613568603083613a42565b91507f4552433732314275726e61626c653a2063616c6c6572206973206e6f74206f7760008301527f6e6572206e6f7220617070726f766564000000000000000000000000000000006020830152604082019050919050565b6135ca81613b83565b82525050565b60006135dc8284612dd6565b915081905092915050565b60006135f38285612dd6565b91506135ff8284612dd6565b91508190509392505050565b60006020820190506136206000830184612d46565b92915050565b600060808201905061363b6000830187612d46565b6136486020830186612d46565b61365560408301856135c1565b81810360608301526136678184612d64565b905095945050505050565b60006020820190506136876000830184612d55565b92915050565b600060208201905081810360008301526136a78184612d9d565b905092915050565b600060208201905081810360008301526136c881612e07565b9050919050565b600060208201905081810360008301526136e881612e47565b9050919050565b6000602082019050818103600083015261370881612ead565b9050919050565b6000602082019050818103600083015261372881612f13565b9050919050565b6000602082019050818103600083015261374881612f53565b9050919050565b6000602082019050818103600083015261376881612fb9565b9050919050565b6000602082019050818103600083015261378881612ff9565b9050919050565b600060208201905081810360008301526137a88161305f565b9050919050565b600060208201905081810360008301526137c88161309f565b9050919050565b600060208201905081810360008301526137e881613105565b9050919050565b6000602082019050818103600083015261380881613145565b9050919050565b60006020820190508181036000830152613828816131ab565b9050919050565b6000602082019050818103600083015261384881613211565b9050919050565b6000602082019050818103600083015261386881613277565b9050919050565b60006020820190508181036000830152613888816132b7565b9050919050565b600060208201905081810360008301526138a88161331d565b9050919050565b600060208201905081810360008301526138c88161335d565b9050919050565b600060208201905081810360008301526138e8816133c3565b9050919050565b6000602082019050818103600083015261390881613429565b9050919050565b600060208201905081810360008301526139288161348f565b9050919050565b60006020820190508181036000830152613948816134f5565b9050919050565b600060208201905081810360008301526139688161355b565b9050919050565b600060208201905061398460008301846135c1565b92915050565b6000604051905081810181811067ffffffffffffffff821117156139b1576139b0613d08565b5b8060405250919050565b600067ffffffffffffffff8211156139d6576139d5613d08565b5b601f19601f8301169050602081019050919050565b600067ffffffffffffffff821115613a0657613a05613d08565b5b601f19601f8301169050602081019050919050565b600081519050919050565b600081519050919050565b600082825260208201905092915050565b600082825260208201905092915050565b600081905092915050565b6000613a6982613b83565b9150613a7483613b83565b9250827fffffffffffffffffffffffffffffffffffffffffffffffffffffffffffffffff03821115613aa957613aa8613c7b565b5b828201905092915050565b6000613abf82613b83565b9150613aca83613b83565b925082613ada57613ad9613caa565b5b828204905092915050565b6000613af082613b83565b9150613afb83613b83565b925082821015613b0e57613b0d613c7b565b5b828203905092915050565b6000613b2482613b63565b9050919050565b60008115159050919050565b60007fffffffff0000000000000000000000000000000000000000000000000000000082169050919050565b600073ffffffffffffffffffffffffffffffffffffffff82169050919050565b6000819050919050565b82818337600083830152505050565b60005b83811015613bba578082015181840152602081019050613b9f565b83811115613bc9576000848401525b50505050565b60006002820490506001821680613be757607f821691505b60208210811415613bfb57613bfa613cd9565b5b50919050565b6000613c0c82613b83565b91507fffffffffffffffffffffffffffffffffffffffffffffffffffffffffffffffff821415613c3f57613c3e613c7b565b5b600182019050919050565b6000613c5582613b83565b9150613c6083613b83565b925082613c7057613c6f613caa565b5b828206905092915050565b7f4e487b7100000000000000000000000000000000000000000000000000000000600052601160045260246000fd5b7f4e487b7100000000000000000000000000000000000000000000000000000000600052601260045260246000fd5b7f4e487b7100000000000000000000000000000000000000000000000000000000600052602260045260246000fd5b7f4e487b7100000000000000000000000000000000000000000000000000000000600052604160045260246000fd5b6000601f19601f8301169050919050565b613d5181613b19565b8114613d5c57600080fd5b50565b613d6881613b2b565b8114613d7357600080fd5b50565b613d7f81613b37565b8114613d8a57600080fd5b50565b613d9681613b83565b8114613da157600080fd5b5056fea2646970667358221220497ce88c0ff374892311498d3c76e5d2e87b7945d18cacaa938241a0c7c2b24964736f6c63430008000033",
  "immutableReferences": {},
  "source": "// SPDX-License-Identifier: MIT\npragma solidity 0.8.0;\n\nimport \"@openzeppelin/contracts/token/ERC721/ERC721.sol\";\nimport \"@openzeppelin/contracts/token/ERC721/extensions/ERC721Enumerable.sol\";\nimport \"@openzeppelin/contracts/security/Pausable.sol\";\nimport \"@openzeppelin/contracts/access/Ownable.sol\";\nimport \"@openzeppelin/contracts/token/ERC721/extensions/ERC721Burnable.sol\";\nimport \"@openzeppelin/contracts/utils/Counters.sol\";\n\ncontract Colour is ERC721, ERC721Enumerable, Pausable, Ownable, ERC721Burnable {\n    using Counters for Counters.Counter;\n    \n    string[] public colours;\n    mapping(string => bool) _colourExists;\n\n    Counters.Counter private _tokenIdCounter;\n\n    // contract name and token name\n    constructor() ERC721(\"Colour\", \"COLR\") {}\n\n    // create token\n    function safeMint(address to) public onlyOwner {\n        _safeMint(to, _tokenIdCounter.current());\n        _tokenIdCounter.increment();\n    }\n\n    // should be an owner for production use\n    function mint(string memory _colour) public { \n      require(!_colourExists[_colour], 'Colour must be unique');\n      colours.push(_colour);\n      uint256 _id = colours.length;\n      _mint(msg.sender, _id);\n      _colourExists[_colour] = true;\n    }\n\n    // find colour via index\n    function getColour(uint index) external view returns(string memory) {\n        return colours[index];\n    }\n\n    // pause contract only owner\n    function pause() public onlyOwner {\n        _pause();\n    }\n\n    // unpause contract only owner\n    function unpause() public onlyOwner {\n        _unpause();\n    }\n\n    // \n    function _beforeTokenTransfer(address from, address to, uint256 tokenId)\n        internal\n        whenNotPaused\n        override(ERC721, ERC721Enumerable)\n    {\n        super._beforeTokenTransfer(from, to, tokenId);\n    }\n\n    //\n    function supportsInterface(bytes4 interfaceId)\n        public\n        view\n        override(ERC721, ERC721Enumerable)\n        returns (bool)\n    {\n        return super.supportsInterface(interfaceId);\n    }\n}\n\n",
  "sourcePath": "/Users/nicktaras/Documents/github/colour-app/src/contracts/Colour.sol",
  "compiler": {
    "name": "solc",
    "version": "0.8.0+commit.c7dfd78e.Emscripten.clang"
  },
  "schemaVersion": "3.3.3",
  "updatedAt": "2021-08-14T13:35:17.664Z",
  "devdoc": {
    "kind": "dev",
    "methods": {
      "approve(address,uint256)": {
        "details": "See {IERC721-approve}."
      },
      "balanceOf(address)": {
        "details": "See {IERC721-balanceOf}."
      },
      "burn(uint256)": {
        "details": "Burns `tokenId`. See {ERC721-_burn}. Requirements: - The caller must own `tokenId` or be an approved operator."
      },
      "getApproved(uint256)": {
        "details": "See {IERC721-getApproved}."
      },
      "isApprovedForAll(address,address)": {
        "details": "See {IERC721-isApprovedForAll}."
      },
      "name()": {
        "details": "See {IERC721Metadata-name}."
      },
      "owner()": {
        "details": "Returns the address of the current owner."
      },
      "ownerOf(uint256)": {
        "details": "See {IERC721-ownerOf}."
      },
      "paused()": {
        "details": "Returns true if the contract is paused, and false otherwise."
      },
      "renounceOwnership()": {
        "details": "Leaves the contract without owner. It will not be possible to call `onlyOwner` functions anymore. Can only be called by the current owner. NOTE: Renouncing ownership will leave the contract without an owner, thereby removing any functionality that is only available to the owner."
      },
      "safeTransferFrom(address,address,uint256)": {
        "details": "See {IERC721-safeTransferFrom}."
      },
      "safeTransferFrom(address,address,uint256,bytes)": {
        "details": "See {IERC721-safeTransferFrom}."
      },
      "setApprovalForAll(address,bool)": {
        "details": "See {IERC721-setApprovalForAll}."
      },
      "symbol()": {
        "details": "See {IERC721Metadata-symbol}."
      },
      "tokenByIndex(uint256)": {
        "details": "See {IERC721Enumerable-tokenByIndex}."
      },
      "tokenOfOwnerByIndex(address,uint256)": {
        "details": "See {IERC721Enumerable-tokenOfOwnerByIndex}."
      },
      "tokenURI(uint256)": {
        "details": "See {IERC721Metadata-tokenURI}."
      },
      "totalSupply()": {
        "details": "See {IERC721Enumerable-totalSupply}."
      },
      "transferFrom(address,address,uint256)": {
        "details": "See {IERC721-transferFrom}."
      },
      "transferOwnership(address)": {
        "details": "Transfers ownership of the contract to a new account (`newOwner`). Can only be called by the current owner."
      }
    },
    "version": 1
  },
  "userdoc": {
    "kind": "user",
    "methods": {},
    "version": 1
  }
}